{"abi":[{"type":"constructor","inputs":[{"name":"_permit2","type":"address","internalType":"contract IAllowanceTransfer"}],"stateMutability":"nonpayable"},{"type":"function","name":"permit","inputs":[{"name":"owner","type":"address","internalType":"address"},{"name":"permitSingle","type":"tuple","internalType":"struct IAllowanceTransfer.PermitSingle","components":[{"name":"details","type":"tuple","internalType":"struct IAllowanceTransfer.PermitDetails","components":[{"name":"token","type":"address","internalType":"address"},{"name":"amount","type":"uint160","internalType":"uint160"},{"name":"expiration","type":"uint48","internalType":"uint48"},{"name":"nonce","type":"uint48","internalType":"uint48"}]},{"name":"spender","type":"address","internalType":"address"},{"name":"sigDeadline","type":"uint256","internalType":"uint256"}]},{"name":"signature","type":"bytes","internalType":"bytes"}],"outputs":[{"name":"err","type":"bytes","internalType":"bytes"}],"stateMutability":"payable"},{"type":"function","name":"permit2","inputs":[],"outputs":[{"name":"","type":"address","internalType":"contract IAllowanceTransfer"}],"stateMutability":"view"},{"type":"function","name":"permitBatch","inputs":[{"name":"owner","type":"address","internalType":"address"},{"name":"_permitBatch","type":"tuple","internalType":"struct IAllowanceTransfer.PermitBatch","components":[{"name":"details","type":"tuple[]","internalType":"struct IAllowanceTransfer.PermitDetails[]","components":[{"name":"token","type":"address","internalType":"address"},{"name":"amount","type":"uint160","internalType":"uint160"},{"name":"expiration","type":"uint48","internalType":"uint48"},{"name":"nonce","type":"uint48","internalType":"uint48"}]},{"name":"spender","type":"address","internalType":"address"},{"name":"sigDeadline","type":"uint256","internalType":"uint256"}]},{"name":"signature","type":"bytes","internalType":"bytes"}],"outputs":[{"name":"err","type":"bytes","internalType":"bytes"}],"stateMutability":"payable"}],"bytecode":{"object":"0x60a0604052348015600e575f80fd5b506040516105e23803806105e2833981016040819052602b91603b565b6001600160a01b03166080526066565b5f60208284031215604a575f80fd5b81516001600160a01b0381168114605f575f80fd5b9392505050565b60805161055861008a5f395f818160700152818160d7015261019201526105585ff3fe608060405260043610610032575f3560e01c80622a3e3a1461003657806312261ee71461005f5780632b67b570146100aa575b5f80fd5b610049610044366004610239565b6100bd565b60405161005691906102b6565b60405180910390f35b34801561006a575f80fd5b506100927f000000000000000000000000000000000000000000000000000000000000000081565b6040516001600160a01b039091168152602001610056565b6100496100b83660046102eb565b610178565b604051632a2d80d160e01b81526060906001600160a01b037f00000000000000000000000000000000000000000000000000000000000000001690632a2d80d1906101129088908890889088906004016103e3565b5f604051808303815f87803b158015610129575f80fd5b505af192505050801561013a575060015b610170573d808015610167576040519150601f19603f3d011682016040523d82523d5f602084013e61016c565b606091505b5090505b949350505050565b6040516302b67b5760e41b81526060906001600160a01b037f00000000000000000000000000000000000000000000000000000000000000001690632b67b570906101129088908890889088906004016104bf565b6001600160a01b03811681146101e1575f80fd5b50565b80356101ef816101cd565b919050565b5f8083601f840112610204575f80fd5b50813567ffffffffffffffff81111561021b575f80fd5b602083019150836020828501011115610232575f80fd5b9250929050565b5f805f806060858703121561024c575f80fd5b8435610257816101cd565b9350602085013567ffffffffffffffff811115610272575f80fd5b850160608188031215610283575f80fd5b9250604085013567ffffffffffffffff81111561029e575f80fd5b6102aa878288016101f4565b95989497509550505050565b602081525f82518060208401528060208501604085015e5f604082850101526040601f19601f83011684010191505092915050565b5f805f80848603610100811215610300575f80fd5b853561030b816101cd565b945060c0601f198201121561031e575f80fd5b5060208501925060e085013567ffffffffffffffff81111561029e575f80fd5b803565ffffffffffff811681146101ef575f80fd5b803561035e816101cd565b6001600160a01b031682526020810135610377816101cd565b6001600160a01b0316602083015265ffffffffffff6103986040830161033e565b16604083015265ffffffffffff6103b16060830161033e565b1660608301525050565b81835281816020850137505f828201602090810191909152601f909101601f19169091010190565b6001600160a01b0385168152606060208201525f60c08201853536879003601e1901811261040f575f80fd5b860160208101903567ffffffffffffffff81111561042b575f80fd5b8060071b360382131561043c575f80fd5b60608581015291829052905f9060e085015b81831015610473576104608185610353565b608093840193600193909301920161044e565b61047f60208a016101e4565b6001600160a01b0316608087015260408981013560a088018190528783039188019190915293506104b181888a6103bb565b9a9950505050505050505050565b6001600160a01b03851681526104d86020820185610353565b5f60808501356104e7816101cd565b6001600160a01b031660a08381019190915285013560c083015261010060e0830181905261051890830184866103bb565b969550505050505056fea2646970667358221220df1e2326fdd7843907f40e29570f961817108469b9239d33748b573854db002d64736f6c634300081a0033","linkReferences":{}},"methodIdentifiers":{"permit(address,((address,uint160,uint48,uint48),address,uint256),bytes)":"2b67b570","permit2()":"12261ee7","permitBatch(address,((address,uint160,uint48,uint48)[],address,uint256),bytes)":"002a3e3a"},"id":56}