{"abi":[{"type":"constructor","inputs":[{"name":"poolManager","type":"address","internalType":"address"},{"name":"positionManager","type":"address","internalType":"address"},{"name":"permit2","type":"address","internalType":"address"}],"stateMutability":"nonpayable"},{"type":"function","name":"createPool","inputs":[{"name":"token0Address","type":"address","internalType":"address"},{"name":"token1Address","type":"address","internalType":"address"},{"name":"fee","type":"uint24","internalType":"uint24"},{"name":"tickSpacing","type":"int24","internalType":"int24"},{"name":"hooksAddress","type":"address","internalType":"address"},{"name":"startingPrice","type":"uint160","internalType":"uint160"}],"outputs":[],"stateMutability":"nonpayable"},{"type":"function","name":"createPoolAndAddLiquidity","inputs":[{"name":"token0Address","type":"address","internalType":"address"},{"name":"token1Address","type":"address","internalType":"address"},{"name":"fee","type":"uint24","internalType":"uint24"},{"name":"tickSpacing","type":"int24","internalType":"int24"},{"name":"hooksAddress","type":"address","internalType":"address"},{"name":"startingPrice","type":"uint160","internalType":"uint160"},{"name":"tickLower","type":"int24","internalType":"int24"},{"name":"tickUpper","type":"int24","internalType":"int24"},{"name":"liquidity","type":"uint256","internalType":"uint256"},{"name":"amount0Max","type":"uint128","internalType":"uint128"},{"name":"amount1Max","type":"uint128","internalType":"uint128"},{"name":"recipient","type":"address","internalType":"address"},{"name":"hookData","type":"bytes","internalType":"bytes"}],"outputs":[],"stateMutability":"nonpayable"}],"bytecode":{"object":"0x60e0604052346100595761001a61001461013a565b916101c4565b61002261005e565b6113886101eb823960805181610892015260a0518181816106e60152611275015260c0518181816111d2015261123b015261138890f35b610064565b60405190565b5f80fd5b601f801991011690565b634e487b7160e01b5f52604160045260245ffd5b9061009090610068565b810190811060018060401b038211176100a857604052565b610072565b906100c06100b961005e565b9283610086565b565b5f80fd5b60018060a01b031690565b6100da906100c6565b90565b6100e6816100d1565b036100ed57565b5f80fd5b905051906100fe826100dd565b565b90916060828403126101355761013261011b845f85016100f1565b9361012981602086016100f1565b936040016100f1565b90565b6100c2565b6101586115738038038061014d816100ad565b928339810190610100565b909192565b90565b61017461016f610179926100c6565b61015d565b6100c6565b90565b61018590610160565b90565b6101919061017c565b90565b61019d90610160565b90565b6101a990610194565b90565b6101b590610160565b90565b6101c1906101ac565b90565b6101e592916101d56101dd92610188565b6080526101a0565b60a0526101b8565b60c05256fe60806040526004361015610013575b610417565b61001d5f3561003c565b8063520894761461003757636b3968590361000e576103dd565b610336565b60e01c90565b60405190565b5f80fd5b5f80fd5b5f80fd5b60018060a01b031690565b61006890610054565b90565b6100748161005f565b0361007b57565b5f80fd5b9050359061008c8261006b565b565b62ffffff1690565b61009f8161008e565b036100a657565b5f80fd5b905035906100b782610096565b565b60020b90565b6100c8816100b9565b036100cf57565b5f80fd5b905035906100e0826100bf565b565b6100eb81610054565b036100f257565b5f80fd5b90503590610103826100e2565b565b90565b61011181610105565b0361011857565b5f80fd5b9050359061012982610108565b565b6fffffffffffffffffffffffffffffffff1690565b6101498161012b565b0361015057565b5f80fd5b9050359061016182610140565b565b5f80fd5b5f80fd5b601f801991011690565b634e487b7160e01b5f52604160045260245ffd5b906101939061016b565b810190811067ffffffffffffffff8211176101ad57604052565b610175565b906101c56101be610042565b9283610189565b565b67ffffffffffffffff81116101e5576101e160209161016b565b0190565b610175565b90825f939282370152565b9092919261020a610205826101c7565b6101b2565b9381855260208501908284011161022657610224926101ea565b565b610167565b9080601f8301121561024957816020610246933591016101f5565b90565b610163565b906101a08282031261032c57610266815f840161007f565b92610274826020850161007f565b9261028283604083016100aa565b9261029081606084016100d3565b9261029e826080850161007f565b926102ac8360a083016100f6565b926102ba8160c084016100d3565b926102c88260e085016100d3565b926102d783610100830161011c565b926102e6816101208401610154565b926102f5826101408501610154565b9261030483610160830161007f565b9261018082013567ffffffffffffffff811161032757610324920161022b565b90565b610050565b61004c565b5f0190565b346103745761035e61034936600461024e565b9b9a909a99919998929897939796949661069c565b610366610042565b8061037081610331565b0390f35b610048565b909160c0828403126103d857610391835f840161007f565b9261039f816020850161007f565b926103ad82604083016100aa565b926103d56103be84606085016100d3565b936103cc816080860161007f565b9360a0016100f6565b90565b61004c565b34610412576103fc6103f0366004610379565b94939093929192610878565b610404610042565b8061040e81610331565b0390f35b610048565b5f80fd5b90565b61043261042d61043792610054565b61041b565b610054565b90565b6104439061041e565b90565b61044f9061043a565b90565b5f80fd5b60e01b90565b67ffffffffffffffff81116104745760208091020190565b610175565b5f80fd5b90825f9392825e0152565b9092919261049d610498826101c7565b6101b2565b938185526020850190828401116104b9576104b79261047d565b565b610167565b9080601f830112156104dc578160206104d993519101610488565b90565b610163565b9291906104f56104f08261045c565b6101b2565b938185526020808601920281019183831161054c5781905b83821061051b575050505050565b815167ffffffffffffffff81116105475760209161053c87849387016104be565b81520191019061050d565b610163565b610479565b9080601f8301121561056f5781602061056c935191016104e1565b90565b610163565b906020828203126105a4575f82015167ffffffffffffffff811161059f5761059c9201610551565b90565b610050565b61004c565b5190565b60209181520190565b60200190565b5190565b60209181520190565b6105e86105f16020936105f6936105df816105bc565b938480936105c0565b9586910161047d565b61016b565b0190565b90610604916105c9565b90565b60200190565b9061062161061a836105a9565b80926105ad565b9081610632602083028401946105b6565b925f915b83831061064557505050505090565b90919293946020610667610661838560019503875289516105fa565b97610607565b9301930191939290610636565b6106899160208201915f81840391015261060d565b90565b610694610042565b3d5f823e3d90fd5b9991976106dc976106d6976106c86107329f97945f9f97958f966106e19f979e839f9390919293610a02565b979091929394959697610e16565b936111b4565b6111b4565b61070a7f0000000000000000000000000000000000000000000000000000000000000000610446565b6107278363ac9650d861071b610042565b96879586948593610456565b835260048301610674565b03925af1801561076457610744575b50565b61075f903d805f833e6107578183610189565b810190610574565b610741565b61068c565b6107729061043a565b90565b90505190610782826100bf565b565b9060208282031261079d5761079a915f01610775565b90565b61004c565b6107ab9061043a565b90565b6107b7906107a2565b9052565b6107c49061008e565b9052565b6107d1906100b9565b9052565b6107de9061043a565b90565b6107ea906107d5565b9052565b90608080610846936108065f8201515f8601906107ae565b610818602082015160208601906107ae565b61082a604082015160408601906107bb565b61083c606082015160608601906107c8565b01519101906107e1565b565b61085190610054565b9052565b9160a061087692949361086f60c08201965f8301906107ee565b0190610848565b565b92602094919261088c949390919293610a02565b916108b67f0000000000000000000000000000000000000000000000000000000000000000610769565b6108d95f636276cbbe9593956108e46108cd610042565b97889687958694610456565b845260048401610855565b03925af18015610922576108f6575b50565b6109169060203d811161091b575b61090e8183610189565b810190610784565b6108f3565b503d610904565b61068c565b61093160a06101b2565b90565b5f90565b5f90565b5f90565b5f90565b61094c610927565b906020808080808661095c610934565b815201610967610934565b815201610972610938565b81520161097d61093c565b815201610988610940565b81525050565b610996610944565b90565b6109a29061041e565b90565b6109ae90610999565b90565b6109bb60a06101b2565b90565b906109c89061005f565b9052565b906109d69061008e565b9052565b906109e4906100b9565b9052565b6109f19061005f565b90565b906109fe906109e8565b9052565b90610a60610a7294610a57610a34610a2e610a28610a6997610a2261098e565b506107a2565b956107a2565b986109a5565b939795919395610a4e610a456109b1565b995f8b016109be565b602089016109be565b604087016109cc565b606085016109da565b608083016109f4565b90565b606090565b90565b610a91610a8c610a9692610a7a565b61041b565b610105565b90565b90610aab610aa68361045c565b6101b2565b918252565b606090565b5f5b828110610ac357505050565b602090610ace610ab0565b8184015201610ab7565b90610afd610ae583610a99565b92602080610af3869361045c565b9201910390610ab5565b565b63ffffffff1690565b63ffffffff60e01b1690565b610b28610b23610b2d92610aff565b610456565b610b08565b90565b634e487b7160e01b5f52603260045260245ffd5b90610b4e826105a9565b811015610b5f576020809102010190565b610b30565b90565b610b7b610b76610b8092610b64565b61041b565b610105565b90565b610b8d6002610a7d565b90565b60ff1690565b610baa610ba5610baf92610105565b61041b565b610b90565b90565b90565b610bc9610bc4610bce92610bb2565b61041b565b610105565b90565b610bdb600d610bb5565b90565b60f81b90565b610bed90610bde565b90565b610bfc610c0191610b90565b610be4565b9052565b600181610c17610c1f93839695610bf0565b018092610bf0565b0190565b610c2c906100b9565b9052565b610c3990610105565b9052565b610c469061012b565b9052565b610c539061005f565b9052565b60209181520190565b610c7f610c88602093610c8d93610c76816105bc565b93848093610c57565b9586910161047d565b61016b565b0190565b95939196949290966101808701975f8801610cab916107ee565b60a08701610cb891610c23565b60c08601610cc591610c23565b60e08501610cd291610c30565b6101008401610ce091610c3d565b6101208301610cee91610c3d565b6101408201610cfc91610c4a565b808203906101600152610d0e91610c60565b90565b610d1b905161005f565b90565b610d27906107a2565b9052565b916020610d4c929493610d4560408201965f830190610d1e565b0190610d1e565b565b90565b610d65610d60610d6a92610d4e565b61041b565b610105565b90565b90565b610d84610d7f610d8992610d6d565b61041b565b610105565b90565b634e487b7160e01b5f52601160045260245ffd5b610daf610db591939293610105565b92610105565b8201809211610dc057565b610d8c565b9091610ddf610ded9360408401908482035f860152610c60565b91602081840391015261060d565b90565b92916020610e0c610e149360408701908782035f890152610c60565b940190610c30565b565b949097969596610e24610a75565b506002610e3090610a7d565b610e3990610ad8565b9863f7020405610e4890610b14565b87610e51610042565b9283926020840190815260040191610e6892610855565b602082018103825203610e7b9082610189565b89905f90610e8882610b67565b610e929084610b44565b52610e9c90610b67565b610ea591610b44565b5150610eaf610b83565b610eb890610b96565b610ec0610bd1565b610ec990610b96565b610ed1610042565b9182916020830191610ee292610c05565b602082018103825203610ef59082610189565b966002610f0190610a7d565b610f0a90610ad8565b98879495969390919293610f1c610042565b9788976020890197610f2d98610c91565b602082018103825203610f409082610189565b83905f90610f4d82610b67565b610f579084610b44565b52610f6190610b67565b610f6a91610b44565b5150805f01610f7890610d11565b90602001610f8590610d11565b610f8d610042565b9182916020830191610f9e92610d2b565b602082018103825203610fb19082610189565b8290600190610fbf82610d51565b610fc99084610b44565b52610fd390610d51565b610fdc91610b44565b515042603c610fea90610d70565b610ff391610da0565b63dd46508f61100190610b14565b919261100b610042565b938491602083019161101c92610dc5565b60208201810382520361102f9084610189565b91611038610042565b928392602084019081526004019161104f92610df0565b6020820181038252036110629082610189565b819060019061107082610d51565b61107a9084610b44565b5261108490610d51565b61108d91610b44565b515090565b61109b9061041e565b90565b6110a790611092565b90565b6110b39061043a565b90565b6110bf9061043a565b90565b151590565b6110d0816110c2565b036110d757565b5f80fd5b905051906110e8826110c7565b565b9060208282031261110357611100915f016110db565b90565b61004c565b91602061112992949361112260408201965f830190610c4a565b0190610c30565b565b6111349061041e565b90565b6111409061112b565b90565b61114c9061043a565b90565b5f91031261115957565b61004c565b65ffffffffffff1690565b6111729061115e565b9052565b6111ab6111b2946111a1606094989795611197608086019a5f870190610c4a565b6020850190610c4a565b6040830190610848565b0190611169565b565b6111c56111c08261109e565b6110aa565b602063095ea7b3916111f67f00000000000000000000000000000000000000000000000000000000000000006110b6565b906112155f801995611220611209610042565b97889687958694610456565b845260048401611108565b03925af1801561134d57611321575b5061126961126461125f7f00000000000000000000000000000000000000000000000000000000000000006110b6565b611137565b611143565b906387517c45906112997f0000000000000000000000000000000000000000000000000000000000000000610446565b9260018060a01b0365ffffffffffff823b1561131c575f946112d986926112ce946112c2610042565b998a9889978896610456565b865260048601611176565b03925af18015611317576112eb575b50565b61130a905f3d8111611310575b6113028183610189565b81019061114f565b5f6112e8565b503d6112f8565b61068c565b610452565b6113419060203d8111611346575b6113398183610189565b8101906110ea565b61122f565b503d61132f565b61068c56fea2646970667358221220248779298c1ed0f8db76123bde878bcd90017cdfadd679bb167cb07e6c09d0f464736f6c634300081a0033","linkReferences":{}},"methodIdentifiers":{"createPool(address,address,uint24,int24,address,uint160)":"6b396859","createPoolAndAddLiquidity(address,address,uint24,int24,address,uint160,int24,int24,uint256,uint128,uint128,address,bytes)":"52089476"},"id":61}