{"abi":[{"type":"constructor","inputs":[{"name":"poolManager","type":"address","internalType":"address"},{"name":"positionManager","type":"address","internalType":"address"},{"name":"permit2","type":"address","internalType":"address"}],"stateMutability":"nonpayable"},{"type":"function","name":"createPool","inputs":[{"name":"token0Address","type":"address","internalType":"address"},{"name":"token1Address","type":"address","internalType":"address"},{"name":"fee","type":"uint24","internalType":"uint24"},{"name":"tickSpacing","type":"int24","internalType":"int24"},{"name":"hooksAddress","type":"address","internalType":"address"},{"name":"startingPrice","type":"uint160","internalType":"uint160"}],"outputs":[],"stateMutability":"nonpayable"},{"type":"function","name":"createPoolAndAddLiquidity","inputs":[{"name":"token0Address","type":"address","internalType":"address"},{"name":"token1Address","type":"address","internalType":"address"},{"name":"fee","type":"uint24","internalType":"uint24"},{"name":"tickSpacing","type":"int24","internalType":"int24"},{"name":"hooksAddress","type":"address","internalType":"address"},{"name":"startingPrice","type":"uint160","internalType":"uint160"},{"name":"tickLower","type":"int24","internalType":"int24"},{"name":"tickUpper","type":"int24","internalType":"int24"},{"name":"liquidity","type":"uint256","internalType":"uint256"},{"name":"amount0Max","type":"uint128","internalType":"uint128"},{"name":"recipient","type":"address","internalType":"address"},{"name":"hookData","type":"bytes","internalType":"bytes"}],"outputs":[],"stateMutability":"nonpayable"}],"bytecode":{"object":"0x60e060405234801561000f575f80fd5b50604051610cad380380610cad83398101604081905261002e91610066565b6001600160a01b0392831660805290821660a0521660c0526100a6565b80516001600160a01b0381168114610061575f80fd5b919050565b5f805f60608486031215610078575f80fd5b6100818461004b565b925061008f6020850161004b565b915061009d6040850161004b565b90509250925092565b60805160a05160c051610bd06100dd5f395f81816104a5015261057901525f818160ac015261053e01525f61015c0152610bd05ff3fe608060405234801561000f575f80fd5b5060043610610034575f3560e01c80634acbaccb146100385780636b3968591461004d575b5f80fd5b61004b6100463660046106f9565b610060565b005b61004b61005b3660046107e4565b610134565b5f61006e8d8d8d8d8d6101dd565b90505f610081828a8a8a8a8a8a8a610249565b905061008c8e61048e565b6100958d61048e565b604051631592ca1b60e31b81526001600160a01b037f0000000000000000000000000000000000000000000000000000000000000000169063ac9650d8906100e19084906004016108e8565b5f604051808303815f875af11580156100fc573d5f803e3d5ffd5b505050506040513d5f823e601f3d908101601f191682016040526101239190810190610901565b505050505050505050505050505050565b5f61014287878787876101dd565b60405163313b65df60e11b81529091506001600160a01b037f00000000000000000000000000000000000000000000000000000000000000001690636276cbbe906101939084908690600401610a4d565b6020604051808303815f875af11580156101af573d5f803e3d5ffd5b505050506040513d601f19601f820116820180604052508101906101d39190610a73565b5050505050505050565b6040805160a0810182525f80825260208201819052918101829052606081018290526080810191909152506040805160a0810182526001600160a01b039687168152948616602086015262ffffff939093169284019290925260020b6060830152909116608082015290565b60408051600280825260608281019093525f9190816020015b606081526020019060019003908161026257505060405190915063f702040560e01b90610295908c908c90602401610a4d565b604051602081830303815290604052906001600160e01b0319166020820180516001600160e01b038381831617835250505050815f815181106102da576102da610a8e565b60209081029190910181019190915260408051600160f91b92810192909252600d60f81b60218301528051600281840381018252602284018181526082850190935290925f9291906042015b60608152602001906001900390816103265790505090508b8a8a8a8a8a8a60405160200161035a9796959493929190610aa2565b604051602081830303815290604052815f8151811061037b5761037b610a8e565b60200260200101819052508b5f01518c602001516040516020016103b59291906001600160a01b0392831681529116602082015260400190565b604051602081830303815290604052816001815181106103d7576103d7610a8e565b60209081029190910101525f6103ee42603c610b08565b60405190915063dd46508f60e01b9061040d9085908590602001610b2d565b60408051601f198184030181529082905261042c918490602401610b5a565b604051602081830303815290604052906001600160e01b0319166020820180516001600160e01b0383818316178352505050508460018151811061047257610472610a8e565b602090810291909101015250919b9a5050505050505050505050565b60405163095ea7b360e01b81526001600160a01b037f0000000000000000000000000000000000000000000000000000000000000000811660048301525f19602483015282169063095ea7b3906044016020604051808303815f875af11580156104fa573d5f803e3d5ffd5b505050506040513d601f19601f8201168201806040525081019061051e9190610b7b565b506040516387517c4560e01b81526001600160a01b0382811660048301527f0000000000000000000000000000000000000000000000000000000000000000811660248301526044820181905265ffffffffffff60648301527f000000000000000000000000000000000000000000000000000000000000000016906387517c45906084015f604051808303815f87803b1580156105ba575f80fd5b505af11580156105cc573d5f803e3d5ffd5b5050505050565b6001600160a01b03811681146105e7575f80fd5b50565b80356105f5816105d3565b919050565b803562ffffff811681146105f5575f80fd5b8060020b81146105e7575f80fd5b80356105f58161060c565b80356001600160801b03811681146105f5575f80fd5b634e487b7160e01b5f52604160045260245ffd5b604051601f8201601f1916810167ffffffffffffffff811182821017156106785761067861063b565b604052919050565b5f67ffffffffffffffff8211156106995761069961063b565b50601f01601f191660200190565b5f82601f8301126106b6575f80fd5b81356106c96106c482610680565b61064f565b8181528460208386010111156106dd575f80fd5b816020850160208301375f918101602001919091529392505050565b5f805f805f805f805f805f806101808d8f031215610715575f80fd5b61071e8d6105ea565b9b5061072c60208e016105ea565b9a5061073a60408e016105fa565b995061074860608e0161061a565b985061075660808e016105ea565b975061076460a08e016105ea565b965061077260c08e0161061a565b955061078060e08e0161061a565b94506101008d013593506107976101208e01610625565b92506107a66101408e016105ea565b915067ffffffffffffffff6101608e013511156107c1575f80fd5b6107d28e6101608f01358f016106a7565b90509295989b509295989b509295989b565b5f805f805f8060c087890312156107f9575f80fd5b8635610804816105d3565b95506020870135610814816105d3565b9450610822604088016105fa565b935060608701356108328161060c565b92506080870135610842816105d3565b915060a0870135610852816105d3565b809150509295509295509295565b5f81518084528060208401602086015e5f602082860101526020601f19601f83011685010191505092915050565b5f82825180855260208501945060208160051b830101602085015f5b838110156108dc57601f198584030188526108c6838351610860565b60209889019890935091909101906001016108aa565b50909695505050505050565b602081525f6108fa602083018461088e565b9392505050565b5f60208284031215610911575f80fd5b815167ffffffffffffffff811115610927575f80fd5b8201601f81018413610937575f80fd5b805167ffffffffffffffff8111156109515761095161063b565b8060051b6109616020820161064f565b9182526020818401810192908101908784111561097c575f80fd5b6020850192505b838310156109ff57825167ffffffffffffffff8111156109a1575f80fd5b8501603f810189136109b1575f80fd5b60208101516109c26106c482610680565b8181526040838301018b10156109d6575f80fd5b8160408401602083015e5f60208383010152808552505050602082019150602083019250610983565b979650505050505050565b80516001600160a01b03908116835260208083015182169084015260408083015162ffffff169084015260608083015160020b9084015260809182015116910152565b60c08101610a5b8285610a0a565b6001600160a01b039290921660a09190910152919050565b5f60208284031215610a83575f80fd5b81516108fa8161060c565b634e487b7160e01b5f52603260045260245ffd5b610aac8189610a0a565b8660020b60a08201528560020b60c08201528460e08201526001600160801b03841661010082015260018060a01b0383166101208201526101606101408201525f610afb610160830184610860565b9998505050505050505050565b80820180821115610b2757634e487b7160e01b5f52601160045260245ffd5b92915050565b604081525f610b3f6040830185610860565b8281036020840152610b51818561088e565b95945050505050565b604081525f610b6c6040830185610860565b90508260208301529392505050565b5f60208284031215610b8b575f80fd5b815180151581146108fa575f80fdfea26469706673582212206385884299b3798bbeef68a54c58733b1b3cf6da33e8e716d0bd566aeb72b12e64736f6c634300081a0033","linkReferences":{}},"methodIdentifiers":{"createPool(address,address,uint24,int24,address,uint160)":"6b396859","createPoolAndAddLiquidity(address,address,uint24,int24,address,uint160,int24,int24,uint256,uint128,address,bytes)":"4acbaccb"},"id":46}