{"abi":[{"type":"function","name":"RELATIVE_BROADCAST_PATH","inputs":[],"outputs":[{"name":"","type":"string","internalType":"string"}],"stateMutability":"view"},{"type":"function","name":"vm","inputs":[],"outputs":[{"name":"","type":"Vm","internalType":"contract Vm"}],"stateMutability":"view"}],"bytecode":{"object":"0x608060405234602057600e6024565b61036261002f82393081505061036290f35b602a565b60405190565b5f80fdfe60806040526004361015610013575b610328565b61001d5f3561003c565b80632aa1c6961461003757633a7684630361000e576102fd565b6101b3565b60e01c90565b60405190565b5f80fd5b5f91031261005657565b610048565b601f801991011690565b634e487b7160e01b5f52604160045260245ffd5b906100839061005b565b810190811067ffffffffffffffff82111761009d57604052565b610065565b906100b56100ae610042565b9283610079565b565b67ffffffffffffffff81116100d5576100d160209161005b565b0190565b610065565b906100ec6100e7836100b7565b6100a2565b918252565b5f7f2e2f62726f616463617374000000000000000000000000000000000000000000910152565b610122600b6100da565b9061012f602083016100f1565b565b610139610118565b90565b610144610131565b90565b61014f61013c565b90565b5190565b60209181520190565b90825f9392825e0152565b6101896101926020936101979361018081610152565b93848093610156565b9586910161015f565b61005b565b0190565b6101b09160208201915f81840391015261016a565b90565b6101be36600461004c565b6101da6101c9610147565b6101d1610042565b9182918261019b565b0390f35b5f1c90565b90565b90565b6101fd6101f8610202926101e3565b6101e6565b6101e3565b90565b610211610216916101de565b6101e9565b90565b60018060a01b031690565b61023861023361023d926101e3565b6101e6565b610219565b90565b61025461024f61025992610219565b6101e6565b610219565b90565b61026590610240565b90565b61027190610240565b90565b61027d90610268565b90565b6102c16102bc6102b76102b27f885cb69240a935d632d79c317109709ecfa91a80626ff3989d68f67f5b1dd12d610205565b610224565b61025c565b610274565b90565b6102cc610280565b90565b6102d89061025c565b90565b6102e4906102cf565b9052565b91906102fb905f602085019401906102db565b565b61030836600461004c565b6103246103136102c4565b61031b610042565b918291826102e8565b0390f35b5f80fdfea264697066735822122002e200652125a29be5405f042c9a5b2fe95e4b35b06ce41a00684ce35b28c47564736f6c634300081a0033","linkReferences":{}},"methodIdentifiers":{"RELATIVE_BROADCAST_PATH()":"2aa1c696","vm()":"3a768463"},"id":14}