{"abi":[{"type":"function","name":"createAndInitializePool","inputs":[{"name":"currency0","type":"address","internalType":"Currency"},{"name":"currency1","type":"address","internalType":"Currency"},{"name":"fee","type":"uint24","internalType":"uint24"},{"name":"tickSpacing","type":"int24","internalType":"int24"},{"name":"hooks","type":"address","internalType":"contract IHooks"},{"name":"poolManager","type":"address","internalType":"address"},{"name":"startingPrice","type":"uint160","internalType":"uint160"}],"outputs":[],"stateMutability":"nonpayable"},{"type":"function","name":"createPoolAndAddLiquidity","inputs":[{"name":"currency0","type":"address","internalType":"Currency"},{"name":"currency1","type":"address","internalType":"Currency"},{"name":"fee","type":"uint24","internalType":"uint24"},{"name":"tickSpacing","type":"int24","internalType":"int24"},{"name":"hooks","type":"address","internalType":"contract IHooks"},{"name":"poolManager","type":"address","internalType":"address"},{"name":"startingPrice","type":"uint160","internalType":"uint160"}],"outputs":[],"stateMutability":"nonpayable"}],"bytecode":{"object":"0x6080604052348015600e575f80fd5b506102c78061001c5f395ff3fe608060405234801561000f575f80fd5b5060043610610034575f3560e01c8063182b8f2514610038578063a5a27f451461004d575b5f80fd5b61004b6100463660046101d7565b610060565b005b61004b61005b3660046101d7565b61013f565b6040805160a0810182526001600160a01b0389811682528881166020830190815262ffffff89811684860190815260028a810b606087019081528a861660808801908152975163313b65df60e11b81528751871660048201529451861660248601529151909216604484015251900b606482015292518116608484015283811660a4840152909190841690636276cbbe9060c4016020604051808303815f875af1158015610110573d5f803e3d5ffd5b505050506040513d601f19601f82011682018060405250810190610134919061026f565b505050505050505050565b604080516002808252606082019092525f91816020015b606081526020019060019003908161015657905050506040805160a0810182526001600160a01b03998a168152978916602089015262ffffff90961695870195909552505060029190910b606084015290921660809091015250565b6001600160a01b03811681146101c6575f80fd5b50565b8060020b81146101c6575f80fd5b5f805f805f805f60e0888a0312156101ed575f80fd5b87356101f8816101b2565b96506020880135610208816101b2565b9550604088013562ffffff8116811461021f575f80fd5b9450606088013561022f816101c9565b9350608088013561023f816101b2565b925060a088013561024f816101b2565b915060c088013561025f816101b2565b8091505092959891949750929550565b5f6020828403121561027f575f80fd5b815161028a816101c9565b939250505056fea2646970667358221220b369797bcfb5dcf05ed7828e54e0841e049540c33b9951fdfc2a4464260d84ee64736f6c634300081a0033","linkReferences":{}},"methodIdentifiers":{"createAndInitializePool(address,address,uint24,int24,address,address,uint160)":"182b8f25","createPoolAndAddLiquidity(address,address,uint24,int24,address,address,uint160)":"a5a27f45"},"id":83}