{"abi":[{"type":"function","name":"ADDRESS_ZERO","inputs":[],"outputs":[{"name":"","type":"address","internalType":"Currency"}],"stateMutability":"view"},{"type":"error","name":"ERC20TransferFailed","inputs":[]},{"type":"error","name":"NativeTransferFailed","inputs":[]}],"bytecode":{"object":"0x608060405234602057600e6024565b61015e61002f82393081505061015e90f35b602a565b60405190565b5f80fdfe60806040526004361015610013575b610124565b61001d5f3561002c565b6366e795090361000e576100f9565b60e01c90565b60405190565b5f80fd5b5f91031261004657565b610038565b90565b60018060a01b031690565b90565b61007061006b6100759261004b565b610059565b61004e565b90565b6100819061005c565b90565b61009861009361009d9261004e565b610059565b61004e565b90565b6100a990610084565b90565b6100b5906100a0565b90565b6100c96100c45f610078565b6100ac565b90565b6100d46100b8565b90565b6100e0906100ac565b9052565b91906100f7905f602085019401906100d7565b565b61010436600461003c565b61012061010f6100cc565b610117610032565b918291826100e4565b0390f35b5f80fdfea2646970667358221220445abbc5593824aa6311df3927360aaace0e00b308c53c6b56e7f44781a52bc464736f6c634300081a0033","linkReferences":{}},"methodIdentifiers":{"ADDRESS_ZERO()":"66e79509"},"id":44}